:03000000020006F5
:0F005F00750A00750B01750E00750F0102000385
:030003000200EA0E
:20006E00AE82AF83EE4F600905FF1EBEFF011F80F322AE82AF83EE4F6015900064C007C047
:20008E000612006ED006D0071EBEFF011F80E722AF8290000AC00712006ED007C2B38F901E
:2000AE00C2B2D2B2D2B322AD82AE83AFF07C00EC2DF9E43EFA8F0389828A838BF01203E9C7
:2000CE00FB60188B82C007C006C005C00412009ED004D005D006D0070C80D422D2B7C2B6F3
:2000EE0090000A12008075820D12009E90006412006E75820E12009E90006412006E9004E1
:20010E000975F0801200B59003E812008075820D12009E90006412006E75820E12009E90A2
:20012E00006412006EC2B790006412006ED2B720B7FD30B7FD20B7FD7F00BF1000502430D9
:20014E00B7FD900004C00712006ED007E5082508F508E50933F50930B70343080120B7FDEB
:20016E000F80D77F00BF1000502430B7FD900004C00712006ED007E50C250CF50CE50D336B
:20018E00F50D30B703430C0120B7FD0F80D77F00BF0800502030B7FD900004C00712006E66
:2001AE00D007E510FE25E0F51030B70343100120B7FD0F80DBAF08E5092FFEE50C2EFEE50D
:2001CE000D2EB51002800C7508AD7509DE750CEF750DBE751500751C0A751D008508828502
:2001EE00098312039CAE8274302EF51475132E751C0A751D00850882850983120373858217
:20020E0008858309751C0A751D0012039CAE8274302EF512751C0A751D0085088285098383
:20022E00120373858208858309751C0A751D0012039CAE8274302EF51175162BE50D30E763
:20024E000375162D530D7F751B00751C0A751D00850C82850D8312039CAE8274302EF51A4F
:20026E0075192E751C0A751D00850C82850D8312037385820C85830D751C0A751D0012036D
:20028E009CAE8274302EF518751C0A751D00850C82850D8312037385820C85830D751C0A05
:2002AE00751D0012039CAE8274302EF51775820D12009E90006412006E75820E12009E9072
:2002CE00006412006EAF0AEF600D758220C00712009ED0071F80F090041075F0801200B5D3
:2002EE0090001175F0401200B59003E8120080C2B675820D12009E90006412006E75820E31
:20030E0012009E90006412006EAF0EEF600D758220C00712009ED0071F80F090041B75F08A
:20032E00801200B590001675F0401200B59003E8120080D2B6E50B250AF50A7406B50A0367
:20034E00750BFFE50A7003750B01E50F250EF50E7402B50E03750FFFE50E600302011B755B
:05036E000F0102011B5C
:20040900486F776479210048756D69646974793A200054656D70657261747572653A200018
:200373007A10E4FBFCE58225E0F582E58333F583EB33FBEC33FCEB951CF5F0EC951D400676
:09039300FCABF0438201DADD222B
:06003500E478FFF6D8FD9F
:200013007900E94400601B7A00900429780175A000E493F2A308B8000205A0D9F4DAF27566
:02003300A0FF2C
:20039C00E51C451D60467A01E51C25E0F51CE51D334012F51DE582951CE583951D40030A8E
:2003BC0080E6C3E51D13F51DE51C13F51CC3E582951CF5F0E583951D4005F58385F082C35B
:0D03DC00E51D13F51DE51C13F51CDAE122EB
:20003B007800E84400600A790175A000E4F309D8FC7800E84400600C7900900001E4F0A3C3
:04005B00D8FCD9FAFA
:0D00060075811D120405E5826003020003F0
:1C03E90020F71430F6148883A88220F507E6A88375830022E280F7E49322E02223
:0404050075820022DA
:00000001FF
