:020000040000FA
:10000000F42BCF1B0B2883134F1883170008840A87
:100010000319CF0A080000308A000408840A820706
:100020000034543465346D34703465347234613462
:1000300074347534723465343A34203400344834BE
:1000400075346D34693464346934743479343A34D1
:100050002034003448346F347734643479342134B4
:0200600000346A
:1001C800013401340D30EB200E30EB20080083128F
:1001D8008F000F08F820C73083128E00F3288E0B8B
:1001E800F228F628F728080083128D0021308C00A9
:1001F8008C0BFC28831285110D0886000511051546
:1002080085150629080083128E0010292030F82051
:10021800013083128E0210290E08031D1429152996
:100228000A29162908008316851083128510C730FD
:100238008C001E298C0B1D2921292229831685143F
:100248008312851400000800831291013A291108CD
:100258000E0784000F0803180F0ACF000120F820AA
:10026800013083129000100891073A2911080E07EF
:1002780084000F0803180F0ACF000120003A031D5D
:10028800462947292B294829080083120C080D0400
:1002980003194F29502985299101910A5F290130B5
:1002A80003108C0D8D0DFF3E031D54290130900065
:1002B800100891075F298D1F622963295329652931
:1002C80065290D080F02031D6B290C080E02031C7B
:1002D8006E296F2976290C088E020D08031C8F03DE
:1002E8008F027629013003108D0C8C0CFF3E031D04
:1002F800772901309102031D8229832965298529DF
:1003080085290F088D000E088C008A2908008312A1
:10031800910192010C080D04031993299429D129FC
:100328009301930AA329013003108C0D8D0DFF3E14
:10033800031D98290130900010089307A3298D1FE9
:10034800A629A7299729A929A92901300310910DC0
:10035800920DFF3E031DAA290D080F02031DB629A1
:100368000C080E02031CB929BA29C2290C088E02EE
:100378000D08031C8F038F021114C22901300310CA
:100388008D0C8C0CFF3E031DC32901309302031D05
:10039800CE29CF29A929D129D12912088D001108E0
:1003A8008C00D62908008312920110301202031C17
:1003B800DE29DF29E2290D2A0D2AE229851CE529F3
:1003C800E629E229E7290D308C008C0BE929031076
:1003D8008312260DA600270DA700851CF429F529F0
:1003E800FD2901302604A60000302704A700FD29B6
:1003F800FD298518002A012AFD29022A01308C00CE
:100408000C08920710301202031C0B2A0C2AE2294E
:100418000D2A930110301302031C132A142A172AD9
:10042800422A422A172A851C1A2A1B2A172A1C2AFA
:100438000D308C008C0B1E2A03108312240DA4008F
:10044800250DA500851C292A2A2A322A01302404D0
:10045800A40000302504A500322A322A8518352A3E
:10046800362A322A372A01308C000C0893071030BC
:100478001302031C402A412A172A422A94010830F1
:100488001402031C482A492A4C2A772A772A4C2A1C
:10049800851C4F2A502A4C2A512A0D308C008C0B6F
:1004A800532A831215088C000C078D000D0895003F
:1004B800851C5F2A602A672A150801388C000C08F9
:1004C8009500672A672A85186A2A6B2A672A6C2A80
:1004D80001308C000C08940708301402031C752A9C
:1004E800762A4C2A772A27088D0026088C000D08C2
:1004F8008C008D0125080C078E0026080E078F003A
:1005080024080F0790001008910011081506031918
:100518008E2A8F2A982AAD30A600DE30A700EF3049
:10052800A400BE30A500982A08008316851105117D
:1005380086018514831285140D309700FB309600D0
:10054800960BA42A970BA42AA92AE6201A3083120C
:100558008E0080308F0028210630831298001330D7
:100568009700AD309600960BB72A970BB72A980BD1
:10057800B72ABE2ABF2AE6201721C22A8312851865
:10058800C62AC72AC22AC92AC92A851CCC2ACD2A22
:10059800C92ACF2ACF2A8518D22AD32ACF2AD42AE1
:1005A800D72183129D010A308C0000308D00270866
:1005B8008F0026088E00492183120C08303E9600D1
:1005C80016089C002E30960016089B000A308C00F6
:1005D80000308D0027088F0026088E008B2183129B
:1005E8000D08A7000C08A6000A308C0000308D000A
:1005F80027088F0026088E00492183120C08303EF8
:10060800960016089A000A308C0000308D002708E2
:100618008F0026088E008B2183120D08A7000C0876
:10062800A6000A308C0000308D0027088F002608AD
:100638008E00492183120C08303E96001608990056
:100648002B30960016089E00A51F2B2B2C2B302B29
:100658002D30960016089E00FF302405A4007F3038
:100668002505A500A3010A308C0000308D0025085F
:100678008F0024088E00492183120C08303E960012
:100688001608A2002E3096001608A1000A308C0029
:1006980000308D0025088F0024088E008B218312DE
:1006A8000D08A5000C08A4000A308C0000308D004D
:1006B80025088F0024088E00492183120C08303E3B
:1006C80096001608A0000A308C0000308D0025081E
:1006D8008F0024088E008B2183120D08A5000C08BA
:1006E800A4000A308C0000308D0025088F002408F3
:1006F8008E00492183120C08303E960016089F0090
:10070800E6208312290807210F3083128E008030DB
:100718008F002821193083128E0000308F00282185
:1007280006308312980013309700AD309600960B70
:100738009B2B970B9B2B980B9B2BA22BE6208312B2
:1007480028080721013083128E0080308F0028216D
:100758001E3083128E0000308F002821063083124D
:10076800980013309700AD309600960BB92B970B75
:10077800B92B980BB92BC02B83122B08290796008D
:100788001608A90006302906031DCB2BCC2BD12B2C
:10079800FF3096001608AB00D12B2908031DD52B76
:1007A800D62BD92BAB01AB0AD92B2A0828079600E0
:1007B8001608A80002302806031DE32BE42BE92BBA
:1007C800FF3096001608AA00E92B2808031DED2B18
:1007D800EE2BBF2AAA01AA0ABF2ABF2ABF2A0028CD
:1007E800E420AA00E520AB00A401A501A601A70109
:0807F800A801A9018301992A5F
:02400E00F1FFC0
:00000001FF
